{
  "_format": "hh-sol-artifact-1",
  "contractName": "MultiSigWallet",
  "sourceName": "contracts/MultiSigWallet.sol",
  "abi": [
    {
      "inputs": [
        {
          "internalType": "address[]",
          "name": "_owners",
          "type": "address[]"
        },
        {
          "internalType": "uint256",
          "name": "_numConfirmationsRequired",
          "type": "uint256"
        }
      ],
      "stateMutability": "nonpayable",
      "type": "constructor"
    },
    {
      "anonymous": false,
      "inputs": [
        {
          "indexed": true,
          "internalType": "address",
          "name": "owner",
          "type": "address"
        },
        {
          "indexed": true,
          "internalType": "uint256",
          "name": "txIndex",
          "type": "uint256"
        }
      ],
      "name": "ConfirmTransaction",
      "type": "event"
    },
    {
      "anonymous": false,
      "inputs": [
        {
          "indexed": true,
          "internalType": "address",
          "name": "from",
          "type": "address"
        },
        {
          "indexed": false,
          "internalType": "uint256",
          "name": "amount",
          "type": "uint256"
        },
        {
          "indexed": false,
          "internalType": "uint256",
          "name": "balance",
          "type": "uint256"
        }
      ],
      "name": "Deposit",
      "type": "event"
    },
    {
      "anonymous": false,
      "inputs": [
        {
          "indexed": true,
          "internalType": "address",
          "name": "owner",
          "type": "address"
        },
        {
          "indexed": true,
          "internalType": "uint256",
          "name": "txIndex",
          "type": "uint256"
        }
      ],
      "name": "ExecuteTransaction",
      "type": "event"
    },
    {
      "anonymous": false,
      "inputs": [
        {
          "indexed": true,
          "internalType": "address",
          "name": "owner",
          "type": "address"
        },
        {
          "indexed": true,
          "internalType": "uint256",
          "name": "txIndex",
          "type": "uint256"
        }
      ],
      "name": "RevokeTransaction",
      "type": "event"
    },
    {
      "anonymous": false,
      "inputs": [
        {
          "indexed": true,
          "internalType": "address",
          "name": "from",
          "type": "address"
        },
        {
          "indexed": true,
          "internalType": "uint256",
          "name": "txIndex",
          "type": "uint256"
        },
        {
          "indexed": true,
          "internalType": "address",
          "name": "to",
          "type": "address"
        },
        {
          "indexed": false,
          "internalType": "uint256",
          "name": "value",
          "type": "uint256"
        },
        {
          "indexed": false,
          "internalType": "bytes",
          "name": "data",
          "type": "bytes"
        }
      ],
      "name": "SubmitTransaction",
      "type": "event"
    },
    {
      "inputs": [
        {
          "internalType": "uint256",
          "name": "_txIndex",
          "type": "uint256"
        }
      ],
      "name": "confirmTransaction",
      "outputs": [],
      "stateMutability": "nonpayable",
      "type": "function"
    },
    {
      "inputs": [
        {
          "internalType": "uint256",
          "name": "_txIndex",
          "type": "uint256"
        }
      ],
      "name": "executeTransaction",
      "outputs": [],
      "stateMutability": "nonpayable",
      "type": "function"
    },
    {
      "inputs": [
        {
          "internalType": "uint256",
          "name": "_txIndex",
          "type": "uint256"
        }
      ],
      "name": "getTransaction",
      "outputs": [
        {
          "internalType": "address",
          "name": "to",
          "type": "address"
        },
        {
          "internalType": "uint256",
          "name": "value",
          "type": "uint256"
        },
        {
          "internalType": "bytes",
          "name": "data",
          "type": "bytes"
        },
        {
          "internalType": "bool",
          "name": "executed",
          "type": "bool"
        },
        {
          "internalType": "uint256",
          "name": "numConfirmations",
          "type": "uint256"
        }
      ],
      "stateMutability": "view",
      "type": "function"
    },
    {
      "inputs": [
        {
          "internalType": "uint256",
          "name": "",
          "type": "uint256"
        },
        {
          "internalType": "address",
          "name": "",
          "type": "address"
        }
      ],
      "name": "isConfirmed",
      "outputs": [
        {
          "internalType": "bool",
          "name": "",
          "type": "bool"
        }
      ],
      "stateMutability": "view",
      "type": "function"
    },
    {
      "inputs": [],
      "name": "numConfirmationsRequired",
      "outputs": [
        {
          "internalType": "uint256",
          "name": "",
          "type": "uint256"
        }
      ],
      "stateMutability": "view",
      "type": "function"
    },
    {
      "inputs": [
        {
          "internalType": "uint256",
          "name": "",
          "type": "uint256"
        }
      ],
      "name": "owners",
      "outputs": [
        {
          "internalType": "address",
          "name": "",
          "type": "address"
        }
      ],
      "stateMutability": "view",
      "type": "function"
    },
    {
      "inputs": [],
      "name": "recieveDeposit",
      "outputs": [],
      "stateMutability": "payable",
      "type": "function"
    },
    {
      "inputs": [
        {
          "internalType": "uint256",
          "name": "_txIndex",
          "type": "uint256"
        }
      ],
      "name": "revokeTransaction",
      "outputs": [],
      "stateMutability": "nonpayable",
      "type": "function"
    },
    {
      "inputs": [
        {
          "internalType": "address",
          "name": "_to",
          "type": "address"
        },
        {
          "internalType": "uint256",
          "name": "_value",
          "type": "uint256"
        },
        {
          "internalType": "bytes",
          "name": "_data",
          "type": "bytes"
        }
      ],
      "name": "submitTransaction",
      "outputs": [],
      "stateMutability": "nonpayable",
      "type": "function"
    },
    {
      "inputs": [
        {
          "internalType": "uint256",
          "name": "",
          "type": "uint256"
        }
      ],
      "name": "transactions",
      "outputs": [
        {
          "internalType": "address",
          "name": "to",
          "type": "address"
        },
        {
          "internalType": "uint256",
          "name": "value",
          "type": "uint256"
        },
        {
          "internalType": "bytes",
          "name": "data",
          "type": "bytes"
        },
        {
          "internalType": "bool",
          "name": "executed",
          "type": "bool"
        },
        {
          "internalType": "uint256",
          "name": "numConfirmations",
          "type": "uint256"
        }
      ],
      "stateMutability": "view",
      "type": "function"
    },
    {
      "inputs": [],
      "name": "transcationsCount",
      "outputs": [
        {
          "internalType": "uint256",
          "name": "",
          "type": "uint256"
        }
      ],
      "stateMutability": "view",
      "type": "function"
    }
  ],
  "bytecode": "0x60806040523480156200001157600080fd5b50604051620012e5380380620012e583398101604081905262000034916200020d565b60008251116200007d5760405162461bcd60e51b815260206004820152600f60248201526e13dddb995c9cc81c995c5d5a5c9959608a1b60448201526064015b60405180910390fd5b6000811180156200008f575081518111155b620000dd5760405162461bcd60e51b815260206004820152601860248201527f496e76616c6964206e756d626572206f66206f776e6572730000000000000000604482015260640162000074565b60005b8251811015620001e557600083828151811062000101576200010162000318565b6020026020010151905060006001600160a01b0316816001600160a01b03161415620001705760405162461bcd60e51b815260206004820152601560248201527f50726f766964652076616c696420616464726573730000000000000000000000604482015260640162000074565b6001600160a01b031660008181526001602081905260408220805460ff191682179055815490810182559080527f290decd9548b62a8d60345a988386fc84ba6bc95484008f6362f93160ef3e5630180546001600160a01b031916909117905580620001dc81620002ee565b915050620000e0565b506002555062000344565b80516001600160a01b03811681146200020857600080fd5b919050565b600080604083850312156200022157600080fd5b82516001600160401b03808211156200023957600080fd5b818501915085601f8301126200024e57600080fd5b81516020828211156200026557620002656200032e565b8160051b604051601f19603f830116810181811086821117156200028d576200028d6200032e565b604052838152828101945085830182870184018b1015620002ad57600080fd5b600096505b84871015620002db57620002c681620001f0565b865260019690960195948301948301620002b2565b5097909101519698969750505050505050565b60006000198214156200031157634e487b7160e01b600052601160045260246000fd5b5060010190565b634e487b7160e01b600052603260045260246000fd5b634e487b7160e01b600052604160045260246000fd5b610f9180620003546000396000f3fe60806040526004361061009c5760003560e01c80639ace38c2116100645780639ace38c21461019b578063c01a8c84146101bb578063c6427474146101db578063cbe000a5146101fb578063d0549b8514610203578063ee22610b1461021957600080fd5b8063025e7c27146100a157806333ea3dc8146100de57806347b2fb621461010f578063735631ad1461012e57806380f59a6514610150575b600080fd5b3480156100ad57600080fd5b506100c16100bc366004610c96565b610239565b6040516001600160a01b0390911681526020015b60405180910390f35b3480156100ea57600080fd5b506100fe6100f9366004610c96565b610263565b6040516100d5959493929190610dc4565b34801561011b57600080fd5b506004545b6040519081526020016100d5565b34801561013a57600080fd5b5061014e610149366004610c96565b61035e565b005b34801561015c57600080fd5b5061018b61016b366004610caf565b600360209081526000928352604080842090915290825290205460ff1681565b60405190151581526020016100d5565b3480156101a757600080fd5b506100fe6101b6366004610c96565b6104f0565b3480156101c757600080fd5b5061014e6101d6366004610c96565b6105c9565b3480156101e757600080fd5b5061014e6101f6366004610bcb565b610754565b61014e6108db565b34801561020f57600080fd5b5061012060025481565b34801561022557600080fd5b5061014e610234366004610c96565b610917565b6000818154811061024957600080fd5b6000918252602090912001546001600160a01b0316905081565b600080606060008060006004878154811061028057610280610f2f565b6000918252602090912060059091020180546001820154600383015460048401546002850180549596506001600160a01b039094169492939260ff9092169183906102ca90610ede565b80601f01602080910402602001604051908101604052809291908181526020018280546102f690610ede565b80156103435780601f1061031857610100808354040283529160200191610343565b820191906000526020600020905b81548152906001019060200180831161032657829003601f168201915b50505050509250955095509550955095505091939590929450565b3360009081526001602052604090205460ff166103965760405162461bcd60e51b815260040161038d90610e60565b60405180910390fd5b600454819081106103b95760405162461bcd60e51b815260040161038d90610dff565b81600481815481106103cd576103cd610f2f565b600091825260209091206003600590920201015460ff16156104015760405162461bcd60e51b815260040161038d90610e36565b60006004848154811061041657610416610f2f565b600091825260208083208784526003825260408085203386529092529220546005909102909101915060ff166104825760405162461bcd60e51b8152602060048201526011602482015270139bdd081e595d0818dbdb999a5c9b5959607a1b604482015260640161038d565b60008481526003602090815260408083203384529091528120805460ff19169055600482018054600192906104b8908490610ec7565b9091555050604051849033907f1ad870073a851011d852bccd8634c29c7c0ac2265ba96d2bab01285001a465a890600090a350505050565b6004818154811061050057600080fd5b60009182526020909120600590910201805460018201546002830180546001600160a01b03909316945090929161053690610ede565b80601f016020809104026020016040519081016040528092919081815260200182805461056290610ede565b80156105af5780601f10610584576101008083540402835291602001916105af565b820191906000526020600020905b81548152906001019060200180831161059257829003601f168201915b505050506003830154600490930154919260ff1691905085565b3360009081526001602052604090205460ff166105f85760405162461bcd60e51b815260040161038d90610e60565b6004548190811061061b5760405162461bcd60e51b815260040161038d90610dff565b816004818154811061062f5761062f610f2f565b600091825260209091206003600590920201015460ff16156106635760405162461bcd60e51b815260040161038d90610e36565b6000838152600360209081526040808320338452909152902054839060ff16156106c35760405162461bcd60e51b8152602060048201526011602482015270105b1c9958591e4818dbdb999a5c9b5959607a1b604482015260640161038d565b6000600485815481106106d8576106d8610f2f565b9060005260206000209060050201905060018160040160008282546106fd9190610eaf565b90915550506000858152600360209081526040808320338085529252808320805460ff191660011790555187927f5cbe105e36805f7820e291f799d5794ff948af2a5f664e580382defb6339004191a35050505050565b3360009081526001602052604090205460ff166107835760405162461bcd60e51b815260040161038d90610e60565b600480546040805160a0810182526001600160a01b0387811682526020808301888152938301878152600060608501819052608085018190526001870188559690965282517f8a35acfbc15ff81a39ae7d344fd709f28e8600b4aa8c65c6b64bfe7fe36bd19b6005870290810180546001600160a01b0319169290941691909117835593517f8a35acfbc15ff81a39ae7d344fd709f28e8600b4aa8c65c6b64bfe7fe36bd19c85015594518051949592949193610867937f8a35acfbc15ff81a39ae7d344fd709f28e8600b4aa8c65c6b64bfe7fe36bd19d90910192910190610b16565b50606082015160038201805460ff19169115159190911790556080909101516004909101556040516001600160a01b03851690829033907fd5a05bf70715ad82a09a756320284a1b54c9ff74cd0f8cce6219e79b563fe59d906108cd9088908890610e8e565b60405180910390a450505050565b6040805134815247602082015233917f90890809c654f11d6e72a28fa60149770a0d11ec6c92319d6ceb2bb0a4ea1a15910160405180910390a2565b3360009081526001602052604090205460ff166109465760405162461bcd60e51b815260040161038d90610e60565b600454819081106109695760405162461bcd60e51b815260040161038d90610dff565b816004818154811061097d5761097d610f2f565b600091825260209091206003600590920201015460ff16156109b15760405162461bcd60e51b815260040161038d90610e36565b6000600484815481106109c6576109c6610f2f565b9060005260206000209060050201905060025481600401541015610a2c5760405162461bcd60e51b815260206004820152601a60248201527f43616e6e6f742065786563757465207472616e73616374696f6e000000000000604482015260640161038d565b60038101805460ff191660019081179091558154908201546040516000926001600160a01b03169190610a63906002860190610d28565b60006040518083038185875af1925050503d8060008114610aa0576040519150601f19603f3d011682016040523d82523d6000602084013e610aa5565b606091505b5050905080610ae25760405162461bcd60e51b81526020600482015260096024820152681d1e0819985a5b195960ba1b604482015260640161038d565b604051859033907f5445f318f4f5fcfb66592e68e0cc5822aa15664039bd5f0ffde24c5a8142b1ac90600090a35050505050565b828054610b2290610ede565b90600052602060002090601f016020900481019282610b445760008555610b8a565b82601f10610b5d57805160ff1916838001178555610b8a565b82800160010185558215610b8a579182015b82811115610b8a578251825591602001919060010190610b6f565b50610b96929150610b9a565b5090565b5b80821115610b965760008155600101610b9b565b80356001600160a01b0381168114610bc657600080fd5b919050565b600080600060608486031215610be057600080fd5b610be984610baf565b925060208401359150604084013567ffffffffffffffff80821115610c0d57600080fd5b818601915086601f830112610c2157600080fd5b813581811115610c3357610c33610f45565b604051601f8201601f19908116603f01168101908382118183101715610c5b57610c5b610f45565b81604052828152896020848701011115610c7457600080fd5b8260208601602083013760006020848301015280955050505050509250925092565b600060208284031215610ca857600080fd5b5035919050565b60008060408385031215610cc257600080fd5b82359150610cd260208401610baf565b90509250929050565b6000815180845260005b81811015610d0157602081850181015186830182015201610ce5565b81811115610d13576000602083870101525b50601f01601f19169290920160200192915050565b600080835481600182811c915080831680610d4457607f831692505b6020808410821415610d6457634e487b7160e01b86526022600452602486fd5b818015610d785760018114610d8957610db6565b60ff19861689528489019650610db6565b60008a81526020902060005b86811015610dae5781548b820152908501908301610d95565b505084890196505b509498975050505050505050565b60018060a01b038616815284602082015260a060408201526000610deb60a0830186610cdb565b931515606083015250608001529392505050565b60208082526019908201527f696e76616c6964207472616e73616374696f6e20696e64657800000000000000604082015260600190565b60208082526010908201526f105b1c9958591e48195e1958dd5d195960821b604082015260600190565b60208082526014908201527313db9b1e481bdddb995c9cc818d85b8818d85b1b60621b604082015260600190565b828152604060208201526000610ea76040830184610cdb565b949350505050565b60008219821115610ec257610ec2610f19565b500190565b600082821015610ed957610ed9610f19565b500390565b600181811c90821680610ef257607f821691505b60208210811415610f1357634e487b7160e01b600052602260045260246000fd5b50919050565b634e487b7160e01b600052601160045260246000fd5b634e487b7160e01b600052603260045260246000fd5b634e487b7160e01b600052604160045260246000fdfea2646970667358221220bbd6cc0a158a035c6a1c629993fc654bfcc6a7cf89c89fb72492c17900fe29cd64736f6c63430008070033",
  "linkReferences": {},
  "deployedLinkReferences": {}
}